S02100004657445F547261666669635F4C696768745F436F6E74726F6C2E737265636D
S11300000C942A000C946A000C9447000C9447004A
S11300100C9447000C9447000C9447000C94470040
S11300200C9447000C9447000C9447000C94470030
S11300300C9447000C9447000C9447000C94470020
S11300400C9447000C9447000C9447000C94470010
S11300500C94470011241FBECFE5D8E0DEBFCDBF0E
S113006010E0A0E6B0E0E0EAF8E002C005900D92EE
S1130070A236B107D9F720E0A2E6B0E001C01D9294
S1130080A436B207E1F70E9445020C944E040C9486
S1130090000060E081E40E94360261E081E40E9495
S11300A0360262E081E40E94360260E082E40E944B
S11300B0360261E082E40E94360262E082E40E9439
S11300C0360262E084E40E9432020E94D7030E9456
S11300D0DF0308951F920F920FB60F9211242F93EE
S11300E03F934F935F936F937F938F939F93AF93BC
S11300F0BF93EF93FF93CF93DF931F92CDB7DEB7F8
S113010080916000813019F5AE014F5F5F4F60E070
S113011081E40E943C038981882319F010926300D2
S113012011C0AE014F5F5F4F62E081E40E943C0367
S11301308981882321F082E08093630003C081E0F9
S11301408093630081E080936200109260000F90BE
S1130150DF91CF91FF91EF91BF91AF919F918F91DB
S11301607F916F915F914F913F912F910F900FBEAF
S11301700F901F90189560E081E40E943E0261E0B8
S113018081E40E943E0262E081E40E943E0260E05B
S113019082E40E943E0261E082E40E943E0262E048
S11301A082E40E943E02089560E081E40E943A02E3
S11301B062E082E40E943A020E9421040895CF92F0
S11301C0DF92EF92FF920F931F93CF93DF93082F49
S11301D0162FD42FC22F83B7846083BFC12CD12C98
S11301E076011FC008B600FEFDCF88B7816088BFC6
S11301F0C701B60126E030E040E050E00E942C0444
S1130200672B682B692B41F4612F802F0E944202D7
S11302106C2F8D2F0E9442028FEFC81AD80AE80A69
S1130220F80A8DE4C816D104E104F104D8F2DF9190
S1130230CF911F910F91FF90EF90DF90CF90089591
S113024062E081E40E943A0260E082E40E943A02A1
S11302500E94210460E082E40E943E0221E041E425
S113026061E082E40E94DF0061E082E40E943E02D9
S113027061E081E40E943E0262E081E40E943E0269
S113028060E081E40E943A0262E082E40E943A0261
S11302900E9421040895CF92DF92EF92FF92CF93B0
S11302A0DF93D82FC62F83B7846083BFC12CD12C92
S11302B076011BC008B600FEFDCF88B7816088BFF9
S11302C0C701B60126E030E040E050E00E942C0473
S11302D0672B682B692B21F46C2F8D2F0E9442020F
S11302E08FEFC81AD80AE80AF80A8DE4C816D104B0
S11302F0E104F104F8F2DF91CF91FF90EF90DF90E9
S1130300CF90089560E082E40E943A0261E081E4C3
S11303100E944B0161E081E40E943E0260E082E4BD
S11303200E943E0221E041E461E082E40E94DF0099
S113033061E082E40E943E0261E081E40E943E02A8
S113034060E081E40E943A0262E082E40E943A02A0
S11303500E94210408950E94BB00809163008111D2
S113036003C00E94D40009C0823019F40E94200105
S113037004C0813011F40E94820160E081E40E9493
S11303803E0221E041E461E082E40E94DF0062E099
S113039082E40E943E0261E082E40E943E0261E047
S11303A081E40E943E0260E082E40E943A0262E03C
S11303B081E40E943A020E94210481E0809360005B
S11303C010926200089580916200811145C00E94DC
S11303D0BB0060E081E40E943A0262E082E40E9491
S11303E03A0261E081E40E943E0262E081E40E94FC
S11303F03E020E94210480916000882321F360E082
S113040081E40E943E0262E082E40E943E0262E0D5
S113041081E40E943E0260E082E40E943A0261E0CC
S113042081E40E944B0180916000882361F260E0C6
S113043082E40E943E0260E081E40E943E0261E0A8
S113044081E40E943E0262E081E40E943A0261E09B
S113045082E40E944B01B7CF813009F0B4CF0E94EF
S1130460AB01B1CF40E00E944C02089541E00E94EC
S11304704C02089541E00E94C402089540E00E94A5
S1130480C40208950E94A00308950E9449000E9496
S1130490E30180E090E00895823429F118F4813476
S11304A039F008958334D1F1843409F452C00895A5
S11304B0413059F42AB381E090E002C0880F991FBB
S11304C06A95E2F7822B8ABB089541115CC02AB376
S11304D081E090E002C0880F991F6A95E2F7809549
S11304E082238ABB0895413059F427B381E090E018
S11304F002C0880F991F6A95E2F7822B87BB089583
S1130500411141C027B381E090E002C0880F991FD8
S11305106A95E2F78095822387BB0895413059F4A8
S113052024B381E090E002C0880F991F6A95E2F736
S1130530822B84BB0895411126C024B381E090E04E
S113054002C0880F991F6A95E2F78095822384BBC5
S11305500895413059F421B381E090E002C0880F3E
S1130560991F6A95E2F7822B81BB089541110BC054
S113057021B381E090E002C0880F991F6A95E2F7E9
S11305808095822381BB0895823429F118F4813443
S113059039F008958334D1F1843409F452C00895B4
S11305A0413059F42BB381E090E002C0880F991FC9
S11305B06A95E2F7822B8BBB089541115CC02BB383
S11305C081E090E002C0880F991F6A95E2F7809558
S11305D082238BBB0895413059F428B381E090E025
S11305E002C0880F991F6A95E2F7822B88BB089591
S11305F0411141C028B381E090E002C0880F991FE7
S11306006A95E2F78095822388BB0895413059F4B6
S113061025B381E090E002C0880F991F6A95E2F744
S1130620822B85BB0895411126C025B381E090E05B
S113063002C0880F991F6A95E2F78095822385BBD3
S11306400895413059F422B381E090E002C0880F4C
S1130650991F6A95E2F7822B82BB089541110BC062
S113066022B381E090E002C0880F991F6A95E2F7F7
S11306708095822382BB0895823401F118F4813479
S113068039F00895833481F1843409F443C0089522
S113069079B381E090E09C01062E02C0220F331F43
S11306A00A94E2F7872F90E08223932302C0959562
S11306B087956A95E2F7FA018083089576B381E01D
S11306C090E09C01062E02C0220F331F0A94E2F729
S11306D0872F90E08223932302C0959587956A958E
S11306E0E2F7FA018083089573B381E090E09C01FE
S11306F0062E02C0220F331F0A94E2F7872F90E0E0
S11307008223932302C0959587956A95E2F7FA01AF
S11307108083089570B381E090E09C01062E02C0AE
S1130720220F331F0A94E2F7872F90E0822393234A
S113073002C0959587956A95E2F7FA01808308953A
S11307408234A1F018F4813431F008958334C9F06F
S1130750843411F108952BB381E090E002C0880F36
S1130760991F6A95E2F782278BBB089528B381E02D
S113077090E002C0880F991F6A95E2F7822788BB30
S1130780089525B381E090E002C0880F991F6A950F
S1130790E2F7822785BB089522B381E090E002C08E
S11307A0880F991F6A95E2F7822782BB089578948F
S11307B085B7836085BF8BB780648BBF089513BEF4
S11307C012BE08950F931F9380349105B9F030F44D
S11307D08130910559F0089769F013C0811521E023
S11307E0920799F081159440A1F00BC083B7816002
S11307F083BF07C083B7826083BF03C083B78360AE
S113080083BF00E010E0980112C083B7846083BF07
S1130810F8CF83B7856083BFF4CF08B600FEFDCF61
S113082088B7816088BF0F5F1F4F2F4F3F4F04175A
S113083015072607370788F31F910F91089513BEF4
S113084008954DE450E060E070E080E091E00E94A3
S1130850E2030E941F040895A1E21A2EAA1BBB1BE7
S1130860FD010DC0AA1FBB1FEE1FFF1FA217B30778
S1130870E407F50720F0A21BB30BE40BF50B661F8E
S1130880771F881F991F1A9469F760957095809552
S113089090959B01AC01BD01CF010895F894FFCF61
S10508A0010051
S9030000FC
